{
  "_format": "hh-sol-artifact-1",
  "contractName": "Vote",
  "sourceName": "contracts/Vote.sol",
  "abi": [
    {
      "inputs": [],
      "stateMutability": "nonpayable",
      "type": "constructor"
    },
    {
      "anonymous": false,
      "inputs": [
        {
          "indexed": true,
          "internalType": "uint256",
          "name": "newsId",
          "type": "uint256"
        }
      ],
      "name": "NewNewsAdded",
      "type": "event"
    },
    {
      "anonymous": false,
      "inputs": [
        {
          "indexed": true,
          "internalType": "uint256",
          "name": "newsId",
          "type": "uint256"
        },
        {
          "indexed": false,
          "internalType": "bool",
          "name": "ans",
          "type": "bool"
        },
        {
          "indexed": false,
          "internalType": "bool",
          "name": "draw",
          "type": "bool"
        }
      ],
      "name": "NewsVerified",
      "type": "event"
    },
    {
      "inputs": [],
      "name": "addNews",
      "outputs": [],
      "stateMutability": "nonpayable",
      "type": "function"
    },
    {
      "inputs": [
        {
          "internalType": "address",
          "name": "_verifier",
          "type": "address"
        }
      ],
      "name": "addVerifier",
      "outputs": [],
      "stateMutability": "nonpayable",
      "type": "function"
    },
    {
      "inputs": [
        {
          "internalType": "uint256",
          "name": "_newsId",
          "type": "uint256"
        }
      ],
      "name": "calculate",
      "outputs": [],
      "stateMutability": "nonpayable",
      "type": "function"
    },
    {
      "inputs": [
        {
          "internalType": "address",
          "name": "_add",
          "type": "address"
        }
      ],
      "name": "checkVerifier",
      "outputs": [
        {
          "internalType": "bool",
          "name": "",
          "type": "bool"
        }
      ],
      "stateMutability": "view",
      "type": "function"
    },
    {
      "inputs": [
        {
          "internalType": "uint256",
          "name": "_newsId",
          "type": "uint256"
        }
      ],
      "name": "getNewsData",
      "outputs": [
        {
          "internalType": "uint64",
          "name": "",
          "type": "uint64"
        },
        {
          "internalType": "uint64",
          "name": "",
          "type": "uint64"
        },
        {
          "internalType": "bool",
          "name": "",
          "type": "bool"
        },
        {
          "internalType": "bool",
          "name": "",
          "type": "bool"
        },
        {
          "internalType": "bool",
          "name": "",
          "type": "bool"
        }
      ],
      "stateMutability": "view",
      "type": "function"
    },
    {
      "inputs": [],
      "name": "getOwner",
      "outputs": [
        {
          "internalType": "address",
          "name": "",
          "type": "address"
        }
      ],
      "stateMutability": "view",
      "type": "function"
    },
    {
      "inputs": [
        {
          "internalType": "address",
          "name": "_user",
          "type": "address"
        }
      ],
      "name": "getUserData",
      "outputs": [
        {
          "internalType": "uint256",
          "name": "",
          "type": "uint256"
        },
        {
          "internalType": "uint256",
          "name": "",
          "type": "uint256"
        }
      ],
      "stateMutability": "view",
      "type": "function"
    },
    {
      "inputs": [
        {
          "internalType": "address",
          "name": "",
          "type": "address"
        }
      ],
      "name": "isVerifier",
      "outputs": [
        {
          "internalType": "bool",
          "name": "",
          "type": "bool"
        }
      ],
      "stateMutability": "view",
      "type": "function"
    },
    {
      "inputs": [
        {
          "internalType": "uint256",
          "name": "",
          "type": "uint256"
        }
      ],
      "name": "newsData",
      "outputs": [
        {
          "internalType": "uint256",
          "name": "newsId",
          "type": "uint256"
        },
        {
          "internalType": "uint64",
          "name": "real",
          "type": "uint64"
        },
        {
          "internalType": "uint64",
          "name": "fake",
          "type": "uint64"
        },
        {
          "internalType": "bool",
          "name": "ans",
          "type": "bool"
        },
        {
          "internalType": "bool",
          "name": "draw",
          "type": "bool"
        },
        {
          "internalType": "bool",
          "name": "cal",
          "type": "bool"
        }
      ],
      "stateMutability": "view",
      "type": "function"
    },
    {
      "inputs": [],
      "name": "newsId",
      "outputs": [
        {
          "internalType": "uint256",
          "name": "",
          "type": "uint256"
        }
      ],
      "stateMutability": "view",
      "type": "function"
    },
    {
      "inputs": [],
      "name": "owner",
      "outputs": [
        {
          "internalType": "address",
          "name": "",
          "type": "address"
        }
      ],
      "stateMutability": "view",
      "type": "function"
    },
    {
      "inputs": [
        {
          "internalType": "address",
          "name": "_verifier",
          "type": "address"
        }
      ],
      "name": "removeVerifier",
      "outputs": [],
      "stateMutability": "nonpayable",
      "type": "function"
    },
    {
      "inputs": [],
      "name": "totalVoters",
      "outputs": [
        {
          "internalType": "uint256",
          "name": "",
          "type": "uint256"
        }
      ],
      "stateMutability": "view",
      "type": "function"
    },
    {
      "inputs": [
        {
          "internalType": "address",
          "name": "",
          "type": "address"
        }
      ],
      "name": "userData",
      "outputs": [
        {
          "internalType": "uint256",
          "name": "correctVotes",
          "type": "uint256"
        },
        {
          "internalType": "uint256",
          "name": "incorrectVotes",
          "type": "uint256"
        }
      ],
      "stateMutability": "view",
      "type": "function"
    },
    {
      "inputs": [
        {
          "internalType": "uint256",
          "name": "_newsId",
          "type": "uint256"
        },
        {
          "internalType": "bool",
          "name": "check",
          "type": "bool"
        }
      ],
      "name": "vote",
      "outputs": [],
      "stateMutability": "nonpayable",
      "type": "function"
    },
    {
      "inputs": [
        {
          "internalType": "uint256",
          "name": "",
          "type": "uint256"
        }
      ],
      "name": "voters",
      "outputs": [
        {
          "internalType": "address",
          "name": "",
          "type": "address"
        }
      ],
      "stateMutability": "view",
      "type": "function"
    }
  ],
  "bytecode": "0x60806040526000600155600060025534801561001a57600080fd5b50336000806101000a81548173ffffffffffffffffffffffffffffffffffffffff021916908373ffffffffffffffffffffffffffffffffffffffff1602179055506003339080600181540180825580915050600190039060005260206000200160009091909190916101000a81548173ffffffffffffffffffffffffffffffffffffffff021916908373ffffffffffffffffffffffffffffffffffffffff160217905550611950806100cd6000396000f3fe608060405234801561001057600080fd5b50600436106101005760003560e01c80639000b3d611610097578063ca2dfd0a11610066578063ca2dfd0a146102a5578063da58c7d9146102c1578063fdc704d7146102f1578063ffc9896b1461032157610100565b80639000b3d614610220578063b9d92de81461023c578063c891091314610258578063c9d27afe1461028957610100565b80635f5300ff116100d35780635f5300ff146101a85780636af2ea6b146101c6578063893d20e8146101e45780638da5cb5b1461020257610100565b80631caa53f214610105578063331052181461013957806338e6edb6146101695780635299c27a14610173575b600080fd5b61011f600480360381019061011a9190611360565b610352565b6040516101309594939291906113cb565b60405180910390f35b610153600480360381019061014e919061147c565b6103ec565b60405161016091906114a9565b60405180910390f35b61017161040c565b005b61018d60048036038101906101889190611360565b6106f3565b60405161019f969594939291906114d3565b60405180910390f35b6101b061077e565b6040516101bd9190611534565b60405180910390f35b6101ce610784565b6040516101db9190611534565b60405180910390f35b6101ec61078a565b6040516101f9919061155e565b60405180910390f35b61020a6107b3565b604051610217919061155e565b60405180910390f35b61023a6004803603810190610235919061147c565b6107d7565b005b61025660048036038101906102519190611360565b610923565b005b610272600480360381019061026d919061147c565b610c8f565b604051610280929190611579565b60405180910390f35b6102a3600480360381019061029e91906115ce565b610cb3565b005b6102bf60048036038101906102ba919061147c565b610f5e565b005b6102db60048036038101906102d69190611360565b61111c565b6040516102e8919061155e565b60405180910390f35b61030b6004803603810190610306919061147c565b61114f565b60405161031891906114a9565b60405180910390f35b61033b6004803603810190610336919061147c565b6111a5565b604051610349929190611579565b60405180910390f35b6000806000806000806004600088815260200190815260200160002090508060010160009054906101000a900467ffffffffffffffff168160010160089054906101000a900467ffffffffffffffff168260010160109054906101000a900460ff168360010160119054906101000a900460ff168460010160129054906101000a900460ff16955095509550955095505091939590929450565b60076020528060005260406000206000915054906101000a900460ff1681565b60008054906101000a900473ffffffffffffffffffffffffffffffffffffffff1673ffffffffffffffffffffffffffffffffffffffff163373ffffffffffffffffffffffffffffffffffffffff161461049a576040517f08c379a000000000000000000000000000000000000000000000000000000000815260040161049190611691565b60405180910390fd5b600760003373ffffffffffffffffffffffffffffffffffffffff1673ffffffffffffffffffffffffffffffffffffffff16815260200190815260200160002060009054906101000a900460ff168061053d575060008054906101000a900473ffffffffffffffffffffffffffffffffffffffff1673ffffffffffffffffffffffffffffffffffffffff163373ffffffffffffffffffffffffffffffffffffffff16145b61057c576040517f08c379a000000000000000000000000000000000000000000000000000000000815260040161057390611723565b60405180910390fd5b6040518060c001604052806001548152602001600067ffffffffffffffff168152602001600067ffffffffffffffff168152602001600015158152602001600015158152602001600015158152506004600060015481526020019081526020016000206000820151816000015560208201518160010160006101000a81548167ffffffffffffffff021916908367ffffffffffffffff16021790555060408201518160010160086101000a81548167ffffffffffffffff021916908367ffffffffffffffff16021790555060608201518160010160106101000a81548160ff02191690831515021790555060808201518160010160116101000a81548160ff02191690831515021790555060a08201518160010160126101000a81548160ff021916908315150217905550905050600160008154809291906106bd90611772565b91905055506001547f42c64279a5711ea96bef27efedecf7658c18e8aab829fd06376efd9b86b8f60060405160405180910390a2565b60046020528060005260406000206000915090508060000154908060010160009054906101000a900467ffffffffffffffff16908060010160089054906101000a900467ffffffffffffffff16908060010160109054906101000a900460ff16908060010160119054906101000a900460ff16908060010160129054906101000a900460ff16905086565b60025481565b60015481565b60008060009054906101000a900473ffffffffffffffffffffffffffffffffffffffff16905090565b60008054906101000a900473ffffffffffffffffffffffffffffffffffffffff1681565b60008054906101000a900473ffffffffffffffffffffffffffffffffffffffff1673ffffffffffffffffffffffffffffffffffffffff163373ffffffffffffffffffffffffffffffffffffffff1614610865576040517f08c379a000000000000000000000000000000000000000000000000000000000815260040161085c90611691565b60405180910390fd5b6001600760008373ffffffffffffffffffffffffffffffffffffffff1673ffffffffffffffffffffffffffffffffffffffff16815260200190815260200160002060006101000a81548160ff0219169083151502179055506003819080600181540180825580915050600190039060005260206000200160009091909190916101000a81548173ffffffffffffffffffffffffffffffffffffffff021916908373ffffffffffffffffffffffffffffffffffffffff16021790555050565b60008054906101000a900473ffffffffffffffffffffffffffffffffffffffff1673ffffffffffffffffffffffffffffffffffffffff163373ffffffffffffffffffffffffffffffffffffffff16146109b1576040517f08c379a00000000000000000000000000000000000000000000000000000000081526004016109a890611691565b60405180910390fd5b600760003373ffffffffffffffffffffffffffffffffffffffff1673ffffffffffffffffffffffffffffffffffffffff16815260200190815260200160002060009054906101000a900460ff1680610a54575060008054906101000a900473ffffffffffffffffffffffffffffffffffffffff1673ffffffffffffffffffffffffffffffffffffffff163373ffffffffffffffffffffffffffffffffffffffff16145b610a93576040517f08c379a0000000000000000000000000000000000000000000000000000000008152600401610a8a90611723565b60405180910390fd5b60006004600083815260200190815260200160002090508060010160129054906101000a900460ff1615610afc576040517f08c379a0000000000000000000000000000000000000000000000000000000008152600401610af390611806565b60405180910390fd5b8060010160009054906101000a900467ffffffffffffffff1667ffffffffffffffff168160010160089054906101000a900467ffffffffffffffff1667ffffffffffffffff161115610b6a5760008160010160106101000a81548160ff021916908315150217905550610bf7565b8060010160089054906101000a900467ffffffffffffffff1667ffffffffffffffff168160010160009054906101000a900467ffffffffffffffff1667ffffffffffffffff161115610bd85760018160010160106101000a81548160ff021916908315150217905550610bf6565b60018160010160116101000a81548160ff0219169083151502179055505b5b60018160010160126101000a81548160ff021916908315150217905550610c2f828260010160109054906101000a900460ff166111ff565b817ff6be87c0cf86c1b821f96e15a063d9dd8369ceabd54a7af27da762cdd13e1b1e8260010160109054906101000a900460ff168360010160119054906101000a900460ff16604051610c83929190611826565b60405180910390a25050565b60066020528060005260406000206000915090508060020154908060030154905082565b600660003373ffffffffffffffffffffffffffffffffffffffff1673ffffffffffffffffffffffffffffffffffffffff168152602001908152602001600020600001600083815260200190815260200160002060009054906101000a900460ff1615610d54576040517f08c379a0000000000000000000000000000000000000000000000000000000008152600401610d4b9061189b565b60405180910390fd5b60006004600084815260200190815260200160002090508115610e315780600101600081819054906101000a900467ffffffffffffffff1680929190610d99906118bb565b91906101000a81548167ffffffffffffffff021916908367ffffffffffffffff160217905550506001600660003373ffffffffffffffffffffffffffffffffffffffff1673ffffffffffffffffffffffffffffffffffffffff168152602001908152602001600020600101600085815260200190815260200160002060006101000a81548160ff021916908315150217905550610e81565b80600101600881819054906101000a900467ffffffffffffffff1680929190610e59906118bb565b91906101000a81548167ffffffffffffffff021916908367ffffffffffffffff160217905550505b3360056000600254815260200190815260200160002060006101000a81548173ffffffffffffffffffffffffffffffffffffffff021916908373ffffffffffffffffffffffffffffffffffffffff16021790555060026000815480929190610ee890611772565b91905055506001600660003373ffffffffffffffffffffffffffffffffffffffff1673ffffffffffffffffffffffffffffffffffffffff168152602001908152602001600020600001600085815260200190815260200160002060006101000a81548160ff021916908315150217905550505050565b60008054906101000a900473ffffffffffffffffffffffffffffffffffffffff1673ffffffffffffffffffffffffffffffffffffffff163373ffffffffffffffffffffffffffffffffffffffff1614610fec576040517f08c379a0000000000000000000000000000000000000000000000000000000008152600401610fe390611691565b60405180910390fd5b6000600760008373ffffffffffffffffffffffffffffffffffffffff1673ffffffffffffffffffffffffffffffffffffffff16815260200190815260200160002060006101000a81548160ff02191690831515021790555060005b600380549050811015611118578173ffffffffffffffffffffffffffffffffffffffff166003828154811061107f5761107e6118eb565b5b9060005260206000200160009054906101000a900473ffffffffffffffffffffffffffffffffffffffff1673ffffffffffffffffffffffffffffffffffffffff160361110b57600381815481106110d9576110d86118eb565b5b9060005260206000200160006101000a81549073ffffffffffffffffffffffffffffffffffffffff0219169055611118565b8080600101915050611047565b5050565b60056020528060005260406000206000915054906101000a900473ffffffffffffffffffffffffffffffffffffffff1681565b6000600760008373ffffffffffffffffffffffffffffffffffffffff1673ffffffffffffffffffffffffffffffffffffffff16815260200190815260200160002060009054906101000a900460ff169050919050565b6000806000600660008573ffffffffffffffffffffffffffffffffffffffff1673ffffffffffffffffffffffffffffffffffffffff1681526020019081526020016000209050806002015481600301549250925050915091565b60005b600254811015611320576000600660006005600085815260200190815260200160002060009054906101000a900473ffffffffffffffffffffffffffffffffffffffff1673ffffffffffffffffffffffffffffffffffffffff1673ffffffffffffffffffffffffffffffffffffffff168152602001908152602001600020905080600001600085815260200190815260200160002060009054906101000a900460ff16156113125780600101600085815260200190815260200160002060009054906101000a900460ff161515831515036112f6578060020160008154809291906112ec90611772565b9190505550611311565b80600301600081548092919061130b90611772565b91905055505b5b508080600101915050611202565b505050565b600080fd5b6000819050919050565b61133d8161132a565b811461134857600080fd5b50565b60008135905061135a81611334565b92915050565b60006020828403121561137657611375611325565b5b60006113848482850161134b565b91505092915050565b600067ffffffffffffffff82169050919050565b6113aa8161138d565b82525050565b60008115159050919050565b6113c5816113b0565b82525050565b600060a0820190506113e060008301886113a1565b6113ed60208301876113a1565b6113fa60408301866113bc565b61140760608301856113bc565b61141460808301846113bc565b9695505050505050565b600073ffffffffffffffffffffffffffffffffffffffff82169050919050565b60006114498261141e565b9050919050565b6114598161143e565b811461146457600080fd5b50565b60008135905061147681611450565b92915050565b60006020828403121561149257611491611325565b5b60006114a084828501611467565b91505092915050565b60006020820190506114be60008301846113bc565b92915050565b6114cd8161132a565b82525050565b600060c0820190506114e860008301896114c4565b6114f560208301886113a1565b61150260408301876113a1565b61150f60608301866113bc565b61151c60808301856113bc565b61152960a08301846113bc565b979650505050505050565b600060208201905061154960008301846114c4565b92915050565b6115588161143e565b82525050565b6000602082019050611573600083018461154f565b92915050565b600060408201905061158e60008301856114c4565b61159b60208301846114c4565b9392505050565b6115ab816113b0565b81146115b657600080fd5b50565b6000813590506115c8816115a2565b92915050565b600080604083850312156115e5576115e4611325565b5b60006115f38582860161134b565b9250506020611604858286016115b9565b9150509250929050565b600082825260208201905092915050565b7f4f6e6c79206f776e65722063616e2063616c6c20746869732066756e6374696f60008201527f6e00000000000000000000000000000000000000000000000000000000000000602082015250565b600061167b60218361160e565b91506116868261161f565b604082019050919050565b600060208201905081810360008301526116aa8161166e565b9050919050565b7f4f6e6c792076657269666965722063616e2063616c6c20746869732066756e6360008201527f74696f6e00000000000000000000000000000000000000000000000000000000602082015250565b600061170d60248361160e565b9150611718826116b1565b604082019050919050565b6000602082019050818103600083015261173c81611700565b9050919050565b7f4e487b7100000000000000000000000000000000000000000000000000000000600052601160045260246000fd5b600061177d8261132a565b91507fffffffffffffffffffffffffffffffffffffffffffffffffffffffffffffffff82036117af576117ae611743565b5b600182019050919050565b7f416c72656164792066696e616c697a6564000000000000000000000000000000600082015250565b60006117f060118361160e565b91506117fb826117ba565b602082019050919050565b6000602082019050818103600083015261181f816117e3565b9050919050565b600060408201905061183b60008301856113bc565b61184860208301846113bc565b9392505050565b7f416c726561647920766f74656400000000000000000000000000000000000000600082015250565b6000611885600d8361160e565b91506118908261184f565b602082019050919050565b600060208201905081810360008301526118b481611878565b9050919050565b60006118c68261138d565b915067ffffffffffffffff82036118e0576118df611743565b5b600182019050919050565b7f4e487b7100000000000000000000000000000000000000000000000000000000600052603260045260246000fdfea26469706673582212202b986644d6206e173a73d0ab1582931736c6dd1b0536e4fd661e9034e2262ea764736f6c63430008180033",
  "linkReferences": {},
  "deployedLinkReferences": {}
}