{
  "_format": "hh-sol-artifact-1",
  "contractName": "Vote",
  "sourceName": "contracts/Vote.sol",
  "abi": [
    {
      "inputs": [],
      "stateMutability": "nonpayable",
      "type": "constructor"
    },
    {
      "anonymous": false,
      "inputs": [
        {
          "indexed": true,
          "internalType": "uint256",
          "name": "newsId",
          "type": "uint256"
        }
      ],
      "name": "NewNewsAdded",
      "type": "event"
    },
    {
      "anonymous": false,
      "inputs": [
        {
          "indexed": true,
          "internalType": "uint256",
          "name": "newsId",
          "type": "uint256"
        },
        {
          "indexed": false,
          "internalType": "bool",
          "name": "ans",
          "type": "bool"
        },
        {
          "indexed": false,
          "internalType": "bool",
          "name": "draw",
          "type": "bool"
        }
      ],
      "name": "NewsVerified",
      "type": "event"
    },
    {
      "inputs": [],
      "name": "addNews",
      "outputs": [],
      "stateMutability": "nonpayable",
      "type": "function"
    },
    {
      "inputs": [
        {
          "internalType": "address",
          "name": "_verifier",
          "type": "address"
        }
      ],
      "name": "addVerifier",
      "outputs": [],
      "stateMutability": "nonpayable",
      "type": "function"
    },
    {
      "inputs": [
        {
          "internalType": "uint256",
          "name": "_newsId",
          "type": "uint256"
        }
      ],
      "name": "calculate",
      "outputs": [],
      "stateMutability": "nonpayable",
      "type": "function"
    },
    {
      "inputs": [
        {
          "internalType": "address",
          "name": "_add",
          "type": "address"
        }
      ],
      "name": "checkVerifier",
      "outputs": [
        {
          "internalType": "bool",
          "name": "",
          "type": "bool"
        }
      ],
      "stateMutability": "view",
      "type": "function"
    },
    {
      "inputs": [],
      "name": "getOwner",
      "outputs": [
        {
          "internalType": "address",
          "name": "",
          "type": "address"
        }
      ],
      "stateMutability": "view",
      "type": "function"
    },
    {
      "inputs": [
        {
          "internalType": "address",
          "name": "",
          "type": "address"
        }
      ],
      "name": "isVerifier",
      "outputs": [
        {
          "internalType": "bool",
          "name": "",
          "type": "bool"
        }
      ],
      "stateMutability": "view",
      "type": "function"
    },
    {
      "inputs": [
        {
          "internalType": "uint256",
          "name": "",
          "type": "uint256"
        }
      ],
      "name": "newsData",
      "outputs": [
        {
          "internalType": "uint256",
          "name": "newsId",
          "type": "uint256"
        },
        {
          "internalType": "uint64",
          "name": "real",
          "type": "uint64"
        },
        {
          "internalType": "uint64",
          "name": "fake",
          "type": "uint64"
        },
        {
          "internalType": "bool",
          "name": "ans",
          "type": "bool"
        },
        {
          "internalType": "bool",
          "name": "draw",
          "type": "bool"
        },
        {
          "internalType": "bool",
          "name": "cal",
          "type": "bool"
        }
      ],
      "stateMutability": "view",
      "type": "function"
    },
    {
      "inputs": [],
      "name": "newsId",
      "outputs": [
        {
          "internalType": "uint256",
          "name": "",
          "type": "uint256"
        }
      ],
      "stateMutability": "view",
      "type": "function"
    },
    {
      "inputs": [],
      "name": "owner",
      "outputs": [
        {
          "internalType": "address",
          "name": "",
          "type": "address"
        }
      ],
      "stateMutability": "view",
      "type": "function"
    },
    {
      "inputs": [
        {
          "internalType": "address",
          "name": "_verifier",
          "type": "address"
        }
      ],
      "name": "removeVerifier",
      "outputs": [],
      "stateMutability": "nonpayable",
      "type": "function"
    },
    {
      "inputs": [],
      "name": "totalVoters",
      "outputs": [
        {
          "internalType": "uint256",
          "name": "",
          "type": "uint256"
        }
      ],
      "stateMutability": "view",
      "type": "function"
    },
    {
      "inputs": [
        {
          "internalType": "address",
          "name": "",
          "type": "address"
        }
      ],
      "name": "userData",
      "outputs": [
        {
          "internalType": "uint256",
          "name": "correctVotes",
          "type": "uint256"
        },
        {
          "internalType": "uint256",
          "name": "incorrectVotes",
          "type": "uint256"
        }
      ],
      "stateMutability": "view",
      "type": "function"
    },
    {
      "inputs": [
        {
          "internalType": "uint256",
          "name": "_newsId",
          "type": "uint256"
        },
        {
          "internalType": "bool",
          "name": "check",
          "type": "bool"
        }
      ],
      "name": "vote",
      "outputs": [],
      "stateMutability": "nonpayable",
      "type": "function"
    },
    {
      "inputs": [
        {
          "internalType": "uint256",
          "name": "",
          "type": "uint256"
        }
      ],
      "name": "voters",
      "outputs": [
        {
          "internalType": "address",
          "name": "",
          "type": "address"
        }
      ],
      "stateMutability": "view",
      "type": "function"
    }
  ],
  "bytecode": "0x60806040526000600155600060025534801561001a57600080fd5b50336000806101000a81548173ffffffffffffffffffffffffffffffffffffffff021916908373ffffffffffffffffffffffffffffffffffffffff1602179055506003339080600181540180825580915050600190039060005260206000200160009091909190916101000a81548173ffffffffffffffffffffffffffffffffffffffff021916908373ffffffffffffffffffffffffffffffffffffffff16021790555061178e806100cd6000396000f3fe608060405234801561001057600080fd5b50600436106100ea5760003560e01c80639000b3d61161008c578063c9d27afe11610066578063c9d27afe1461023f578063ca2dfd0a1461025b578063da58c7d914610277578063fdc704d7146102a7576100ea565b80639000b3d6146101d6578063b9d92de8146101f2578063c89109131461020e576100ea565b80635f5300ff116100c85780635f5300ff1461015e5780636af2ea6b1461017c578063893d20e81461019a5780638da5cb5b146101b8576100ea565b806333105218146100ef57806338e6edb61461011f5780635299c27a14610129575b600080fd5b61010960048036038101906101049190611219565b6102d7565b6040516101169190611261565b60405180910390f35b6101276102f7565b005b610143600480360381019061013e91906112b2565b6105de565b60405161015596959493929190611311565b60405180910390f35b610166610669565b6040516101739190611372565b60405180910390f35b61018461066f565b6040516101919190611372565b60405180910390f35b6101a2610675565b6040516101af919061139c565b60405180910390f35b6101c061069e565b6040516101cd919061139c565b60405180910390f35b6101f060048036038101906101eb9190611219565b6106c2565b005b61020c600480360381019061020791906112b2565b61080e565b005b61022860048036038101906102239190611219565b610b7a565b6040516102369291906113b7565b60405180910390f35b6102596004803603810190610254919061140c565b610b9e565b005b61027560048036038101906102709190611219565b610e49565b005b610291600480360381019061028c91906112b2565b611007565b60405161029e919061139c565b60405180910390f35b6102c160048036038101906102bc9190611219565b61103a565b6040516102ce9190611261565b60405180910390f35b60076020528060005260406000206000915054906101000a900460ff1681565b60008054906101000a900473ffffffffffffffffffffffffffffffffffffffff1673ffffffffffffffffffffffffffffffffffffffff163373ffffffffffffffffffffffffffffffffffffffff1614610385576040517f08c379a000000000000000000000000000000000000000000000000000000000815260040161037c906114cf565b60405180910390fd5b600760003373ffffffffffffffffffffffffffffffffffffffff1673ffffffffffffffffffffffffffffffffffffffff16815260200190815260200160002060009054906101000a900460ff1680610428575060008054906101000a900473ffffffffffffffffffffffffffffffffffffffff1673ffffffffffffffffffffffffffffffffffffffff163373ffffffffffffffffffffffffffffffffffffffff16145b610467576040517f08c379a000000000000000000000000000000000000000000000000000000000815260040161045e90611561565b60405180910390fd5b6040518060c001604052806001548152602001600067ffffffffffffffff168152602001600067ffffffffffffffff168152602001600015158152602001600015158152602001600015158152506004600060015481526020019081526020016000206000820151816000015560208201518160010160006101000a81548167ffffffffffffffff021916908367ffffffffffffffff16021790555060408201518160010160086101000a81548167ffffffffffffffff021916908367ffffffffffffffff16021790555060608201518160010160106101000a81548160ff02191690831515021790555060808201518160010160116101000a81548160ff02191690831515021790555060a08201518160010160126101000a81548160ff021916908315150217905550905050600160008154809291906105a8906115b0565b91905055506001547f42c64279a5711ea96bef27efedecf7658c18e8aab829fd06376efd9b86b8f60060405160405180910390a2565b60046020528060005260406000206000915090508060000154908060010160009054906101000a900467ffffffffffffffff16908060010160089054906101000a900467ffffffffffffffff16908060010160109054906101000a900460ff16908060010160119054906101000a900460ff16908060010160129054906101000a900460ff16905086565b60025481565b60015481565b60008060009054906101000a900473ffffffffffffffffffffffffffffffffffffffff16905090565b60008054906101000a900473ffffffffffffffffffffffffffffffffffffffff1681565b60008054906101000a900473ffffffffffffffffffffffffffffffffffffffff1673ffffffffffffffffffffffffffffffffffffffff163373ffffffffffffffffffffffffffffffffffffffff1614610750576040517f08c379a0000000000000000000000000000000000000000000000000000000008152600401610747906114cf565b60405180910390fd5b6001600760008373ffffffffffffffffffffffffffffffffffffffff1673ffffffffffffffffffffffffffffffffffffffff16815260200190815260200160002060006101000a81548160ff0219169083151502179055506003819080600181540180825580915050600190039060005260206000200160009091909190916101000a81548173ffffffffffffffffffffffffffffffffffffffff021916908373ffffffffffffffffffffffffffffffffffffffff16021790555050565b60008054906101000a900473ffffffffffffffffffffffffffffffffffffffff1673ffffffffffffffffffffffffffffffffffffffff163373ffffffffffffffffffffffffffffffffffffffff161461089c576040517f08c379a0000000000000000000000000000000000000000000000000000000008152600401610893906114cf565b60405180910390fd5b600760003373ffffffffffffffffffffffffffffffffffffffff1673ffffffffffffffffffffffffffffffffffffffff16815260200190815260200160002060009054906101000a900460ff168061093f575060008054906101000a900473ffffffffffffffffffffffffffffffffffffffff1673ffffffffffffffffffffffffffffffffffffffff163373ffffffffffffffffffffffffffffffffffffffff16145b61097e576040517f08c379a000000000000000000000000000000000000000000000000000000000815260040161097590611561565b60405180910390fd5b60006004600083815260200190815260200160002090508060010160129054906101000a900460ff16156109e7576040517f08c379a00000000000000000000000000000000000000000000000000000000081526004016109de90611644565b60405180910390fd5b8060010160009054906101000a900467ffffffffffffffff1667ffffffffffffffff168160010160089054906101000a900467ffffffffffffffff1667ffffffffffffffff161115610a555760008160010160106101000a81548160ff021916908315150217905550610ae2565b8060010160089054906101000a900467ffffffffffffffff1667ffffffffffffffff168160010160009054906101000a900467ffffffffffffffff1667ffffffffffffffff161115610ac35760018160010160106101000a81548160ff021916908315150217905550610ae1565b60018160010160116101000a81548160ff0219169083151502179055505b5b60018160010160126101000a81548160ff021916908315150217905550610b1a828260010160109054906101000a900460ff16611090565b817ff6be87c0cf86c1b821f96e15a063d9dd8369ceabd54a7af27da762cdd13e1b1e8260010160109054906101000a900460ff168360010160119054906101000a900460ff16604051610b6e929190611664565b60405180910390a25050565b60066020528060005260406000206000915090508060020154908060030154905082565b600660003373ffffffffffffffffffffffffffffffffffffffff1673ffffffffffffffffffffffffffffffffffffffff168152602001908152602001600020600001600083815260200190815260200160002060009054906101000a900460ff1615610c3f576040517f08c379a0000000000000000000000000000000000000000000000000000000008152600401610c36906116d9565b60405180910390fd5b60006004600084815260200190815260200160002090508115610d1c5780600101600081819054906101000a900467ffffffffffffffff1680929190610c84906116f9565b91906101000a81548167ffffffffffffffff021916908367ffffffffffffffff160217905550506001600660003373ffffffffffffffffffffffffffffffffffffffff1673ffffffffffffffffffffffffffffffffffffffff168152602001908152602001600020600101600085815260200190815260200160002060006101000a81548160ff021916908315150217905550610d6c565b80600101600881819054906101000a900467ffffffffffffffff1680929190610d44906116f9565b91906101000a81548167ffffffffffffffff021916908367ffffffffffffffff160217905550505b3360056000600254815260200190815260200160002060006101000a81548173ffffffffffffffffffffffffffffffffffffffff021916908373ffffffffffffffffffffffffffffffffffffffff16021790555060026000815480929190610dd3906115b0565b91905055506001600660003373ffffffffffffffffffffffffffffffffffffffff1673ffffffffffffffffffffffffffffffffffffffff168152602001908152602001600020600001600085815260200190815260200160002060006101000a81548160ff021916908315150217905550505050565b60008054906101000a900473ffffffffffffffffffffffffffffffffffffffff1673ffffffffffffffffffffffffffffffffffffffff163373ffffffffffffffffffffffffffffffffffffffff1614610ed7576040517f08c379a0000000000000000000000000000000000000000000000000000000008152600401610ece906114cf565b60405180910390fd5b6000600760008373ffffffffffffffffffffffffffffffffffffffff1673ffffffffffffffffffffffffffffffffffffffff16815260200190815260200160002060006101000a81548160ff02191690831515021790555060005b600380549050811015611003578173ffffffffffffffffffffffffffffffffffffffff1660038281548110610f6a57610f69611729565b5b9060005260206000200160009054906101000a900473ffffffffffffffffffffffffffffffffffffffff1673ffffffffffffffffffffffffffffffffffffffff1603610ff65760038181548110610fc457610fc3611729565b5b9060005260206000200160006101000a81549073ffffffffffffffffffffffffffffffffffffffff0219169055611003565b8080600101915050610f32565b5050565b60056020528060005260406000206000915054906101000a900473ffffffffffffffffffffffffffffffffffffffff1681565b6000600760008373ffffffffffffffffffffffffffffffffffffffff1673ffffffffffffffffffffffffffffffffffffffff16815260200190815260200160002060009054906101000a900460ff169050919050565b60005b6002548110156111b1576000600660006005600085815260200190815260200160002060009054906101000a900473ffffffffffffffffffffffffffffffffffffffff1673ffffffffffffffffffffffffffffffffffffffff1673ffffffffffffffffffffffffffffffffffffffff168152602001908152602001600020905080600001600085815260200190815260200160002060009054906101000a900460ff16156111a35780600101600085815260200190815260200160002060009054906101000a900460ff161515831515036111875780600201600081548092919061117d906115b0565b91905055506111a2565b80600301600081548092919061119c906115b0565b91905055505b5b508080600101915050611093565b505050565b600080fd5b600073ffffffffffffffffffffffffffffffffffffffff82169050919050565b60006111e6826111bb565b9050919050565b6111f6816111db565b811461120157600080fd5b50565b600081359050611213816111ed565b92915050565b60006020828403121561122f5761122e6111b6565b5b600061123d84828501611204565b91505092915050565b60008115159050919050565b61125b81611246565b82525050565b60006020820190506112766000830184611252565b92915050565b6000819050919050565b61128f8161127c565b811461129a57600080fd5b50565b6000813590506112ac81611286565b92915050565b6000602082840312156112c8576112c76111b6565b5b60006112d68482850161129d565b91505092915050565b6112e88161127c565b82525050565b600067ffffffffffffffff82169050919050565b61130b816112ee565b82525050565b600060c08201905061132660008301896112df565b6113336020830188611302565b6113406040830187611302565b61134d6060830186611252565b61135a6080830185611252565b61136760a0830184611252565b979650505050505050565b600060208201905061138760008301846112df565b92915050565b611396816111db565b82525050565b60006020820190506113b1600083018461138d565b92915050565b60006040820190506113cc60008301856112df565b6113d960208301846112df565b9392505050565b6113e981611246565b81146113f457600080fd5b50565b600081359050611406816113e0565b92915050565b60008060408385031215611423576114226111b6565b5b60006114318582860161129d565b9250506020611442858286016113f7565b9150509250929050565b600082825260208201905092915050565b7f4f6e6c79206f776e65722063616e2063616c6c20746869732066756e6374696f60008201527f6e00000000000000000000000000000000000000000000000000000000000000602082015250565b60006114b960218361144c565b91506114c48261145d565b604082019050919050565b600060208201905081810360008301526114e8816114ac565b9050919050565b7f4f6e6c792076657269666965722063616e2063616c6c20746869732066756e6360008201527f74696f6e00000000000000000000000000000000000000000000000000000000602082015250565b600061154b60248361144c565b9150611556826114ef565b604082019050919050565b6000602082019050818103600083015261157a8161153e565b9050919050565b7f4e487b7100000000000000000000000000000000000000000000000000000000600052601160045260246000fd5b60006115bb8261127c565b91507fffffffffffffffffffffffffffffffffffffffffffffffffffffffffffffffff82036115ed576115ec611581565b5b600182019050919050565b7f416c72656164792066696e616c697a6564000000000000000000000000000000600082015250565b600061162e60118361144c565b9150611639826115f8565b602082019050919050565b6000602082019050818103600083015261165d81611621565b9050919050565b60006040820190506116796000830185611252565b6116866020830184611252565b9392505050565b7f416c726561647920766f74656400000000000000000000000000000000000000600082015250565b60006116c3600d8361144c565b91506116ce8261168d565b602082019050919050565b600060208201905081810360008301526116f2816116b6565b9050919050565b6000611704826112ee565b915067ffffffffffffffff820361171e5761171d611581565b5b600182019050919050565b7f4e487b7100000000000000000000000000000000000000000000000000000000600052603260045260246000fdfea264697066735822122026d3ad823e2d44b1fa9a9f013a7a5877dfd1b64d1808ed5e1f4e1e87c0d15d0b64736f6c63430008180033",
  "linkReferences": {},
  "deployedLinkReferences": {}
}